:100000000C9434000C9446000C9446000C9446006A
:100010000C9446000C9446000C9446000C94460048
:100020000C9446000C9446000C9446000C94460038
:100030000C9446000C9446000C9446000C94460028
:100040000C9446000C9446000C9446000C94460018
:100050000C9446000C944F000C9446000C944600FF
:100060000C9446000C94460011241FBECFEFD8E03C
:10007000DEBFCDBF21E0A0E0B1E001C01D92A33002
:10008000B207E1F70E9463000C94D6000C940000C4
:100090009091C00095FFFCCF8093C60008951F92F9
:1000A0000F920FB60F9211248F93B09A81E0809334
:1000B000010180917900809302018F910F900FBE12
:1000C0000F901F9018951092C50080E18093C40096
:1000D00088E18093C10086E08093C2009FEA9093FC
:1000E0007A0080937B0080E680937C008091800082
:1000F000836080938000809181008961809381007A
:1001000080EF9AE090938900809388007894C3E010
:10011000D0E0809101018130E1F7109201018091DE
:100120000001811117C08091020181600E94480086
:100130008091000190E00196BE010E94AE00809384
:10014000000180917C0090910001807F892B809339
:100150007C00DFCF809102018E7FE8CF97FB072ED6
:1001600016F4009407D077FD09D00E94C20007FC66
:1001700005D03EF4909581959F4F089570956195B7
:100180007F4F0895AA1BBB1B51E107C0AA1FBB1FCD
:10019000A617B70710F0A61BB70B881F991F5A9513
:1001A000A9F780959095BC01CD010895F894FFCFF3
:00000001FF
